:03000000020006F5
:0C005F00E4F508F509F50AF50B020003B2
:0300030002009D5B
:20006B00AE82AF838E048F051EBEFF011FC3E49C74808DF063F08095F050167CFF7D00EC9C
:20008B0024FFFAED34FFFB8A048B05EA4B70F080D322C290C291D2929007D012006B209751
:2000AB001BE508450970159007D012006B2097EED290D29275080175090080E230970BC219
:2000CB0090D292E4F508F50980D420961BE50A450B70159007D012006B2096C2D291D29236
:1A00EB00750A01750B0080B630960BC291D292E4F50AF50B80A8C29280A4BA
:06003500E478FFF6D8FD9F
:200013007900E94400601B7A00900109780175A000E493F2A308B8000205A0D9F4DAF27589
:02003300A0FF2C
:20003B007800E84400600A790175A000E4F309D8FC7800E84400600C7900900001E4F0A3C3
:04005B00D8FCD9FAFA
:0D00060075810B120105E582600302000305
:0401050075820022DD
:00000001FF
