:03000000020008F3
:0300610002000397
:0500030012020E80FE58
:04006400AA82AB833E
:090068008A048B051ABAFF011B82
:0E007100C3E49C74808DF063F08095F0500F16
:04007F007CFF7D0085
:050083001CBCFF011D83
:06008800EC4D70F780DA78
:01008E00224F
:0A008F00C012858112AA82AB83EA39
:0A0099002471F582EB3404F583E4D2
:0C00A3009390FFC1F0E51224FCF8E62465
:0A00AF0061F58208E63404F583E4ED
:0800B9009390FFC0F0D0122269
:0600C100300006AA0EABA0
:0300C7000F8004A3
:0400CA00AA10AB11BC
:0E00CE00C002C0037464C0E0E4C0E08A828B0C
:0E00DC00831203AAAC82AD8315811581C00486
:0D00EA00C00590000012008F158115819057
:0E00F7000002120064D003D002C002C00374E5
:0E01050064C0E0E4C0E08A828B8312036DAC1C
:0E01130082AD8315811581740AC0E0E4C0E05E
:0E0121008C828D831203AAAC82AD83158115EA
:0E012F0081C004C00590000112008F158115DB
:0E013D0081900002120064D003D002740AC048
:0E014B00E0E4C0E08A828B8312036DAA82ABCF
:0D0159008315811581C002C00390000212C1
:0D016600008F158115819000021200643099
:0C0173000013740CC0E0E4C0E090000336
:09017F0012008F15811581801119
:0E018800740FC0E0E4C0E090000312008F1579
:030196008115814F
:0601990090000202006468
:0E019F00AA82AB83C002C00390001212034B71
:0E01AD00AA82AB8315811581740AC0E0E4C0FC
:0E01BB00E08A828B831203AAAA82AB8315818D
:0C01C900158174202AF582E43BF58322A6
:0E01D500AA82AB83EA24E0FAEB34FFFBC002FF
:0E01E300C00390000A12034BAA82AB83158161
:0E01F10015817412C0E0E4C0E08A828B831294
:0E01FF0003AAAA82AB83158115818A828B83A5
:01020D0022CE
:06020E00E4F508F509F516
:040214000AF50BF5E7
:040218000CF50DD202
:06021C0000750E19E4F567
:090222000F90001912019F858262
:04022B0010858311A6
:0C022F001200C1A297E433FA7B00B5086E
:07023B0006EBB50902806C1F
:0A024200A297E433F50875090020C7
:0A024C00976030002DC3E50E9419F1
:0A025600E50F9402500B7401250E11
:07026000FAE4350FFB8004F6
:040267007A197B0283
:05026B008A0E8B0F85D7
:060270000E82850F8312CF
:07027600019F8582108583C2
:01027D00116F
:09027E0020002DC3E51094E7E512
:0A028700119403500B74012510FAC6
:06029100E43511FB8004BE
:040297007AE77B0384
:05029B008A108B1185A3
:0602A0001082851183129B
:0702A60001D585820E85835E
:0102AD000F41
:0C02AE00A296E433FA7B00B50A06EBB51B
:0402BA000B0280684B
:0A02BE00A296E433F50A750B002048
:0802C800965C300029E50E45AB
:0902D0000F600CE50E24FFFAE5B5
:0602D9000F34FFFB80045E
:0402DF007A007B0026
:0502E3008A0E8B0F855F
:0602E8000E82850F831257
:0702EE00019F85821085834A
:0102F50011F7
:0A02F60020002DC374209510E4953C
:0903000011500CE51024FFFAE590
:060309001134FFFB80042B
:04030F007A207B00D5
:050313008A108B11852A
:0603180010828511831222
:07031E0001D585820E8583E5
:010325000FC8
:0C032600A295E433FA7B00B50C07EBB5A0
:050332000D0302022F83
:0A033700A295E433F50C750D0030BB
:05034100950302022FEC
:05034600B20002022FCD
:0E0461003F065B4F666D7D077F67777C395ED7
:02046F007971A1
:040471000102040878
:06003700E478FFF6D8FD9D
:080015007900E94400601B7A48
:05001D0000900475785D
:030022000075A0C6
:0A00250000E493F2A308B8000205FE
:08002F00A0D9F4DAF275A0FF7C
:0E034B0074FE2581F8E68582F0A4C0E085826C
:0E035900F018E6A4F582D0E025F0C58386F00A
:06036700A42583F58322AA
:08003D007800E84400600A7934
:030045000075A0A3
:0600480000E4F309D8FCFE
:08004E007800E84400600C7921
:0B00560000900000E4F0A3D8FCD9FAF1
:03000800758120DF
:0A000B0012045DE5826003020003A9
:0E036D00C2D5E58330E70DD2D5E4C39582F505
:06037B0082E49583F58386
:0E038100E58124FEF8E630E70918E4C396F69D
:04038F00E40896F6F2
:0E03930086011886001203F130D50BE4C395E5
:0803A10082F582E49583F583E7
:0103A9002231
:0E03AA00C2D5E58330E70DD2D5E4C39582F5C8
:0603B80082E49583F58349
:0E03BE00E58124FEF8E630E70AB2D518E4C364
:0503CC0096F6E408961E
:0E03D100F918E6F812043630D50BE4C3958215
:0703DF00F582E49583F5832C
:0103E60022F4
:0A03E700E58124FEF8860118860067
:0603F100E84960367A01C4
:0E03F700E825E0F8E933400EF9E58298E58349
:060405009940030A80EC9F
:02040B00C3E943
:05040D0013F9E813F8EB
:0E041200C3E58298F5F0E583994005F58385F2
:02042000F08268
:09042200C3E913F9E813F8DAE765
:01042B0022AE
:0A042C00E58124FEF8E6F918E6F871
:050436007A10E4FBFC5C
:0E043B00E58225E0F582E58333F583EB33FBA4
:0E044900EC33FCEB98F5F0EC994006FCABF0C0
:03045700438201DC
:03045A00DADF22C4
:04045D007582002282
:00000001FF
